:100000000C947C000C94A4000C94A4000C940702A3
:100010000C9407020C9407020C94A4000C94A40006
:100020000C94A4000C94A4000C94A4000C94A400C0
:100030000C94A4000C94A4000C94A4000C94A400B0
:100040000C94D5040C94A4000C9490070C94C20753
:100050000C94A4000C94A4000C94A4000C94A40090
:100060000C94A4000C94A40053797374656D205211
:100070004553455400517565727920526571756517
:100080007374204944203A200062756666657220C8
:10009000436C6561726564000000000800020100A5
:1000A0000003040700000000000000000102040833
:1000B00010204080010204081020010204081020D2
:1000C00004040404040404040202020202020303FE
:1000D00003030303000000002300260029000000A2
:1000E0000000250028002B0000000000240027004D
:1000F0002A001201F207200111241FBECFEFD8E021
:10010000DEBFCDBF11E0A0E0B1E0ECE7F3E102C05B
:1001100005900D92A635B107D9F722E0A6E5B1E02A
:1001200001C01D92A433B207E1F710E0C6EFD0E0A2
:1001300004C02297FE010E94AD09C23FD107C9F752
:100140000E9432090C94B1090C94000026E040E8AA
:1001500055E260E070E087EE91E00E942E0740E8F3
:1001600055E260E070E08BE791E00E940A0364E0F2
:1001700084E791E00E949E0391E090936A018BE0F6
:1001800080936B0185E080936C0190936D0192E008
:1001900090936E0193E090936F0194E090937001BF
:1001A0008093710168E670E087EE91E00E949A0802
:1001B00068EB7BE080E090E00C94420560E071E049
:1001C00087EE91E00E94AC0820E631E04BE061E070
:1001D00084E791E00E94790468EE73E080E090E0AB
:1001E0000E94420560E071E087EE91E00E94AC0859
:1001F00026E531E04BE062E084E791E00E9479047B
:1002000066E171E087EE91E00E94AC0866E171E082
:1002100087EE91E00E94AC0868EB7BE080E090E024
:100220000C94420520E043E062E08BE791E00E94FD
:10023000DA0240E06BE771E084E791E00C94980308
:100240008BE791E00C9481022091DC013091DD017B
:1002500028173907B9F490919A0180919B0198175A
:1002600089F0E0919A01F0E0E456FE4F8081209100
:100270009A0130E02F5F3F4F2F73332720939A016D
:1002800090E008958FEF9FEF08951F93CF93DF9332
:10029000DC015C968D919C915D97009749F481E01B
:1002A00090E013969C938E93129780E090E03BC071
:1002B0005196ED91FC91529750962C915097322F78
:1002C00030951FB75E964C915E9741FB772770F98A
:1002D00041FD6095F8944081772311F0422B01C0D5
:1002E00043234083EC012197F1F748E0508160FF00
:1002F00002C0522B01C053235083EC012197F1F728
:100300006695415099F78081772311F0832301C0CE
:10031000822B80831FBF5C968D919C915D97019786
:10032000F1F781E090E0DF91CF911F91089508955A
:100330002091DC013091DD012817390771F490918B
:100340009A0180919B01981741F0E0919A01F0E0A9
:10035000E456FE4F808190E008958FEF9FEF08955F
:100360002091DC013091DD012817390771F480916B
:100370009B0120919A0190E0805C9F4F821B910924
:1003800060E470E00E944209089580E090E00895E2
:10039000E091DC01F091DD01E817F90769F4A38928
:1003A000B4899C918589809589238C931092DD0175
:1003B0001092DC0181E0089580E00895CF93DF93EF
:1003C000EC018A8D9B8D892BF1F08091DC0190915D
:1003D000DD018C179D07B9F0009711F00E94C8014C
:1003E0008E8D8E7F8E8F10929B0110929A01D093EA
:1003F000DD01C093DC01EB89FC8980819D89892B1B
:10040000808381E001C080E0DF91CF9108951F9249
:100410000F920FB60F9211242F933F934F935F9338
:100420006F937F938F939F93AF93BF93EF93FF93BC
:10043000E091DC01F091DD01309709F451C0868D27
:10044000A685B785958581FF04C08C91892329F401
:1004500047C08C91892309F043C0A389B4899C913A
:100460008589809589238C93868997890197F1F7EF
:10047000208D318DA685B785758558E040E0C9018E
:100480000197F1F7842F90E095958795482F6C910F
:10049000672309F04068515091F7868D81FD4095A2
:1004A00080919B0190E001968F73992720919A018A
:1004B000281749F0A0919B01B0E0A456BE4F4C9381
:1004C00080939B0103C0868D8160868F828D938D82
:1004D0000197F1F7A389B4898C919589892B8C9325
:1004E000FF91EF91BF91AF919F918F917F916F910C
:1004F0005F914F913F912F910F900FBE0F901F90E2
:10050000189528E231E0FC01318320830C94C80166
:100510001F93CF93DF93EC01162F6E8D669561705C
:1005200081E06827812F0E94190661E0812F0E94D7
:10053000E005812F90E0FC01E455FF4FE491E88B4A
:10054000FC01E054FF4FE491F0E0EE0FFF1FE25298
:10055000FF4F859194919A8B898BDF91CF911F9159
:1005600008951F93CF93DF93EC01162F60E0812F46
:100570000E94E0058E8D81FD04C061E0812F0E9404
:1005800019061C87812F90E0FC01E455FF4FE49190
:10059000ED87FC01E054FF4FE491F0E0EE0FFF1F08
:1005A000EC52FF4F859194919F878E87DF91CF9179
:1005B0001F910895FF920F931F93CF93DF93EC0148
:1005C000F62E522F1B821A8208EE13E020E030E054
:1005D0000C831D832E833F8388E291E09983888377
:1005E0001F8A1E8A198E188E1B8E1A8E1D8E1C8EC7
:1005F0008E8D8E7F50FB81F98E8F642FCE010E94ED
:1006000088026F2DCE01DF91CF911F910F91FF9046
:100610000C94B102CF93DF93EC019A01AB011B8ED6
:100620001A8E198E188E1F8A1E8A60E079E08DE37B
:1006300090E00E947809C9012430310520F0B90109
:100640006350710902C061E070E07D8F6C8FEC85B2
:10065000E63108F068C0B901769567956431710597
:1006600018F06351710902C061E070E07F8B6E8BFE
:10067000069718F0C901059702C081E090E0998FB4
:10068000888FC901880F991F820F931F96958795B0
:10069000969587958D30910510F00C9702C081E0FA
:1006A00090E09B8F8A8F20916800E83050F091E0B5
:1006B000EE3008F490E081E001C0880F9A95EAF7E7
:1006C00001C084E0822B809368002C85283038F0AC
:1006D0002E3040F0263148F48CE690E008C08DE6DC
:1006E00090E005C08BE690E002C080E090E09C8B3B
:1006F0008B8B283030F481E001C0880F2A95EAF70F
:100700000DC0822F90E02E3010F4089701C00E9794
:1007100091E001C0990F8A95EAF7892F8D8B8C8D16
:100720009D8D0197F1F7CE01DF91CF910C94DE0101
:10073000FC0115827383628340830895CF93DF9316
:10074000EC01862F6C8361E00E94E00560E08C8103
:10075000DF91CF910C941906EF92FF920F931F93A4
:10076000CF93DF931F92CDB7DEB77C018B0161E0A1
:10077000DC0114968C9149830E941906F70182814D
:100780009381DC01ED91FC91498150E00280F3817D
:10079000E02DB801099560E0F70184810F90DF91A9
:1007A000CF911F910F91FF90EF900C9419061F931A
:1007B000CF93DF93EC018A819B81DC01ED91FC9169
:1007C0000084F185E02D0995182F8A819B81DC0139
:1007D000ED91FC910480F581E02D0995811710F4CD
:1007E00080E001C0812FDF91CF911F910895CF93B9
:1007F000DF93EC011D821E8219828A819B81DC01BC
:10080000ED91FC910480F581E02D0995892B51F043
:100810008A819B81DC01ED91FC910680F781E02DBE
:100820000995EBCF69E870E087EE91E0DF91CF9119
:100830000C949A08CF92DF92EF92FF920F931F933E
:10084000CF93DF93CDB7DEB727970FB6F894DEBF0F
:100850000FBECDBF7C018E010F5F1F4F6E0185E083
:10086000C80ED11CD70112968D919C911397DC0173
:10087000ED91FC910680F781E02D4D836E837F839F
:100880000995F80181938F014D816E817F81EC156F
:10089000FD0541F78A8184131CC029812450D62E7E
:1008A0008B01802F8D19821790F4D70112968D91AC
:1008B0009C911397DC01ED91FC910680F781E02D6E
:1008C0002D830995F80181938F012D81EACF822F25
:1008D00001C080E027960FB6F894DEBF0FBECDBFF3
:1008E000DF91CF911F910F91FF90EF90DF90CF900C
:1008F0000895AF92BF92CF92DF92EF92FF920F9343
:100900001F93CF93DF9300D000D01F92CDB7DEB7F7
:100910008C01A62E690185E089836A834B831C8242
:100920001D8245E0BE016F5F7F4FC8010E94AC038E
:1009300065E770E087EE91E00E9473084AE050E0BE
:100940006A2D87EE91E00E941A0988E8E82E83E17B
:10095000F82EC8010E94D703B82E882331F04A2D03
:10096000B601C8010E941A04B82E61E070E080E070
:1009700090E00E94420581E0E81AF10811F0BB20E6
:1009800041F3C8010E94F7038B2D0F900F900F9039
:100990000F900F90DF91CF911F910F91FF90EF90EB
:1009A000DF90CF90BF90AF9008951F920F920FB637
:1009B0000F9211242F933F938F939F93AF93BF93E5
:1009C0008091DF019091E001A091E101B091E201FD
:1009D0003091DE0123E0230F2D3720F40196A11D75
:1009E000B11D05C026E8230F0296A11DB11D20935D
:1009F000DE018093DF019093E001A093E101B093C9
:100A0000E2018091E3019091E401A091E501B091B0
:100A1000E6010196A11DB11D8093E3019093E401CD
:100A2000A093E501B093E601BF91AF919F918F91A3
:100A30003F912F910F900FBE0F901F9018953FB7C9
:100A4000F8948091E3019091E401A091E501B091C7
:100A5000E60126B5A89B05C02F3F19F00196A11D00
:100A6000B11D3FBF6627782F892F9A2F620F711D06
:100A7000811D911D42E0660F771F881F991F4A95BF
:100A8000D1F708958F929F92AF92BF92CF92DF924B
:100A9000EF92FF926B017C010E941F054B015C01EC
:100AA000C114D104E104F104F1F00E9441090E9453
:100AB0001F05681979098A099B09683E73408105F9
:100AC000910570F321E0C21AD108E108F10888EE1F
:100AD000880E83E0981EA11CB11CC114D104E1044E
:100AE000F10429F7DDCFFF90EF90DF90CF90BF901A
:100AF000AF909F908F900895789484B5826084BD64
:100B000084B5816084BD85B5826085BD85B5816011
:100B100085BDEEE6F0E0808181608083E1E8F0E071
:100B20001082808182608083808181608083E0E8A0
:100B3000F0E0808181608083E1EBF0E0808184607F
:100B40008083E0EBF0E0808181608083EAE7F0E081
:100B500080818460808380818260808380818160E5
:100B600080838081806880831092C10008958330E3
:100B700081F028F4813099F08230A1F00895873017
:100B8000A9F08830B9F08430D1F4809180008F7D55
:100B900003C0809180008F7780938000089584B592
:100BA0008F7702C084B58F7D84BD08958091B00099
:100BB0008F7703C08091B0008F7D8093B00008953F
:100BC000CF93DF9390E0FC01E455FF4F2491FC01AB
:100BD000E054FF4F8491882349F190E0880F991FDA
:100BE000FC01E851FF4FA591B49182529F4FFC0147
:100BF000C591D4919FB7611108C0F8948C9120954C
:100C000082238C93888182230AC0623051F4F89445
:100C10008C91322F309583238C938881822B88830B
:100C200004C0F8948C91822B8C939FBFDF91CF915D
:100C300008950F931F93CF93DF931F92CDB7DEB725
:100C4000282F30E0F901E856FF4F8491F901E4556F
:100C5000FF4F1491F901E054FF4F04910023C9F0B4
:100C6000882321F069830E94B7056981E02FF0E0B5
:100C7000EE0FFF1FE252FF4FA591B4919FB7F8947A
:100C80008C91611103C01095812301C0812B8C933D
:100C90009FBF0F90DF91CF911F910F910895FC019D
:100CA000818D228D90E04096821B91098F7099274B
:100CB0000895FC01918D828D981731F0828DE80F97
:100CC000F11D858D90E008958FEF9FEF0895FC0151
:100CD000918D828D981761F0828DDF01A80FB11D73
:100CE0005D968C91928D9F5F9F70928F90E008959A
:100CF0008FEF9FEF089588EE97E0892B49F080E011
:100D000090E0892B29F00E94E80781110C940000E3
:100D10000895FC01848DDF01A80FB11D9D962C91D3
:100D2000848D90E001968F719927848FA689B78969
:100D30002C93A089B1898C9180648C93938D848D40
:100D4000981306C00288F389E02D80818F7D80830F
:100D50000895CF93DF93EC01888D8823C9F0EA8949
:100D6000FB89808185FD05C0A889B9898C9186FDA4
:100D70000FC00FB607FCF5CF808185FFF2CFA889A1
:100D8000B9898C9185FFEDCFCE010E948906E7CF0E
:100D9000DF91CF910895CF92DF92FF920F931F932F
:100DA000CF93DF931F92CDB7DEB76C0181E0D60100
:100DB00058968C9358975B969C915B975C968C9118
:100DC0005C97981307C05096ED91FC9151978081E4
:100DD00085FD2CC0F601038D10E00F5F1F4F0F71D2
:100DE0001127F02EF601848DF81211C00FB607FC02
:100DF000F9CFD6015096ED91FC915197808185FFF6
:100E0000F1CFC60169830E9489066981EBCF838D8A
:100E1000E80FF11D65A7D6015B960C935B97529680
:100E2000ED91FC915397808180620CC0D60156965B
:100E3000ED91FC91579760835096ED91FC915197FD
:100E400080818064808381E090E00F90DF91CF917A
:100E50001F910F91FF90DF90CF900895BF92CF9296
:100E6000DF92EF92FF92CF93DF93EC016A017B0157
:100E7000B22EE889F98982E08083411581EE580716
:100E800061057105A1F060E079E08DE390E0A701D4
:100E900096010E9456092150310941095109569580
:100EA000479537952795211580E1380798F0E8890F
:100EB000F989108260E874E88EE190E0A70196015C
:100EC0000E9456092150310941095109569547950B
:100ED00037952795EC85FD853083EE85FF8520834A
:100EE000188EEC89FD89B082EA89FB898081806156
:100EF0008083EA89FB89808188608083EA89FB8915
:100F0000808180688083EA89FB8980818F7D8083EE
:100F1000DF91CF91FF90EF90DF90CF90BF90089539
:100F20001F920F920FB60F9211242F938F939F93BE
:100F3000EF93FF93E091F701F091F8018081E09148
:100F4000FD01F091FE0182FD12C0908180910002AE
:100F50008F5F8F7020910102821751F0E0910002A3
:100F6000F0E0E951FE4F958F8093000201C080812F
:100F7000FF91EF919F918F912F910F900FBE0F9046
:100F80001F9018951F920F920FB60F9211242F9356
:100F90003F934F935F936F937F938F939F93AF9301
:100FA000BF93EF93FF9387EE91E00E948906FF9134
:100FB000EF91BF91AF919F918F917F916F915F91D1
:100FC0004F913F912F910F900FBE0F901F9018954A
:100FD00087EE91E00E944F0621E0892B09F420E082
:100FE000822F08951092EA011092E90188EE93E0B1
:100FF000A0E0B0E08093EB019093EC01A093ED01B1
:10100000B093EE0188E391E09093E8018093E701CB
:1010100085EC90E09093F4018093F30184EC90E0F0
:101020009093F6018093F50180EC90E09093F801A5
:101030008093F70181EC90E09093FA018093F9019D
:1010400082EC90E09093FC018093FB0186EC90E0B1
:101050009093FE018093FD01109200021092010214
:1010600010920202109203020895CF92DF92EF9243
:10107000FF920F931F93CF93DF937C016A01EB01E3
:1010800000E010E00C151D0571F06991D701ED919C
:10109000FC910190F081E02DC7010995892B19F091
:1010A0000F5F1F4FEFCFC801DF91CF911F910F91BD
:1010B000FF90EF90DF90CF9008956115710581F05A
:1010C000DB010D900020E9F7AD0141505109461BAD
:1010D000570BDC01ED91FC910280F381E02D099426
:1010E00080E090E00895EF92FF920F931F93CF93CB
:1010F000DF938C017B01C0E0D0E0F701EC0FFD1F16
:101100006491662359F0F801A081B181ED91FC91C1
:10111000C8010995892B11F02196EFCFCE01DF91FF
:10112000CF911F910F91FF90EF90089564E471E0CB
:101130000C945D080F931F93CF93DF93EC010E94F3
:1011400073088C01CE010E949608800F911FDF91D9
:10115000CF911F910F9108950F931F93CF93DF931A
:10116000EC010E945D088C01CE010E949608800F60
:10117000911FDF91CF911F910F9108958F929F92B0
:10118000AF92BF92DF92EF92FF920F931F93CF9394
:10119000DF93CDB7DEB7A1970FB6F894DEBF0FBED1
:1011A000CDBF7C01F42FD52ECB0119A2223008F43B
:1011B0002AE08E010F5D1F4F822E912CA12CB12CA5
:1011C0006F2F7D2DA50194010E945609F22FD32E79
:1011D000CA01015011096A3014F4E0E301C0E7E3E9
:1011E000E60FD801EC93232B242B252B49F7B801CC
:1011F000C7010E945D08A1960FB6F894DEBF0FBE2E
:10120000CDBFDF91CF911F910F91FF90EF90DF90B5
:10121000BF90AF909F908F9008952115310541F4B4
:10122000DC01ED91FC910190F081E02D642F099497
:101230000C94BE080F931F93CF93DF93EC019A0198
:10124000462F50E060E070E00E940D098C01CE0155
:101250000E949608800F911FDF91CF911F910F91EF
:10126000089508950E947C050E9431090E94A600FD
:10127000CBE7D6E00E94DE002097E1F30E947B06D8
:10128000F9CF089597FB072E16F4009407D077FD49
:1012900009D00E94970907FC05D03EF490958195EE
:1012A0009F4F0895709561957F4F0895A1E21A2E82
:1012B000AA1BBB1BFD010DC0AA1FBB1FEE1FFF1FFA
:1012C000A217B307E407F50720F0A21BB30BE40B4A
:1012D000F50B661F771F881F991F1A9469F7609591
:1012E0007095809590959B01AC01BD01CF0108954B
:1012F000052E97FB1EF400940E948F0957FD07D01E
:101300000E94560907FC03D04EF40C948F095095A7
:101310004095309521953F4F4F4F5F4F08959095E1
:101320008095709561957F4F8F4F9F4F0895AA1BB1
:10133000BB1B51E107C0AA1FBB1FA617B70710F0C0
:10134000A61BB70B881F991F5A95A9F780959095F2
:10135000BC01CD010895EE0FFF1F0590F491E02D23
:10136000099410E0C6EFD0E004C0FE010E94AD0970
:0C1370002296C83FD107C9F7F894FFCFC0
:10137C002D2D2D2D2D2D2D2D2D2D2D2D2D2D2D2D91
:10138C002D2D2D2D2D00446F6E65207363616E6EB7
:10139C00696E67000000000045013508B0012401AA
:1013AC009801970100000000CB0635084F06670630
:1013BC005906A9060D0A006E616E00696E66006F13
:0613CC007666002E000011
:107E0000112484B714BE81FFF0D085E080938100F7
:107E100082E08093C00088E18093C10086E0809377
:107E2000C20080E18093C4008EE0C9D0259A86E02C
:107E300020E33CEF91E0309385002093840096BBD3
:107E4000B09BFECF1D9AA8958150A9F7CC24DD24C4
:107E500088248394B5E0AB2EA1E19A2EF3E0BF2EE7
:107E6000A2D0813461F49FD0082FAFD0023811F036
:107E7000013811F484E001C083E08DD089C08234E0
:107E800011F484E103C0853419F485E0A6D080C0E4
:107E9000853579F488D0E82EFF2485D0082F10E0AE
:107EA000102F00270E291F29000F111F8ED06801E7
:107EB0006FC0863521F484E090D080E0DECF843638
:107EC00009F040C070D06FD0082F6DD080E0C81688
:107ED00080E7D80618F4F601B7BEE895C0E0D1E017
:107EE00062D089930C17E1F7F0E0CF16F0E7DF06D8
:107EF00018F0F601B7BEE89568D007B600FCFDCFD4
:107F0000A601A0E0B1E02C9130E011968C91119780
:107F100090E0982F8827822B932B1296FA010C0160
:107F200087BEE89511244E5F5F4FF1E0A038BF0790
:107F300051F7F601A7BEE89507B600FCFDCF97BE46
:107F4000E89526C08437B1F42ED02DD0F82E2BD052
:107F50003CD0F601EF2C8F010F5F1F4F84911BD097
:107F6000EA94F801C1F70894C11CD11CFA94CF0C13
:107F7000D11C0EC0853739F428D08EE10CD085E9AC
:107F80000AD08FE07ACF813511F488E018D01DD067
:107F900080E101D065CF982F8091C00085FFFCCF94
:107FA0009093C60008958091C00087FFFCCF809118
:107FB000C00084FD01C0A8958091C6000895E0E648
:107FC000F0E098E1908380830895EDDF803219F02E
:107FD00088E0F5DFFFCF84E1DECF1F93182FE3DFCA
:107FE0001150E9F7F2DF1F91089580E0E8DFEE27F6
:047FF000FF270994CA
:027FFE00040479
:0400000300007E007B
:00000001FF
