:100000000C9492000C94BA000C94BA000C94060262
:100010000C9406020C9406020C94BA000C94BA00DC
:100020000C94BA000C94BA000C94BA000C94BA0068
:100030000C94BA000C94BA000C94BA000C94BA0058
:100040000C94D2040C94BA000C9430070C94620700
:100050000C94BA000C94BA000C94BA000C94BA0038
:100060000C94BA000C94BA0046756E6374696F6E96
:1000700020436F64653A20004F776E2041646472BC
:100080003A200041646472657373204E6F74204D92
:100090006174636865640041646472657373204DC4
:1000A00061746368656400526573706F6E64696E35
:1000B00067203A200062756666657220436C656150
:1000C00072656400000000080002010000030407DC
:1000D0000000000000000000010204081020408021
:1000E0000102040810200102040810200404040482
:1000F00004040404020202020202030303030303D2
:100100000000000023002600290000000000250058
:1001100028002B0000000000240027002A00110105
:1001200092071F0111241FBECFEFD8E0DEBFCDBF65
:1001300011E0A0E0B1E0EAEBF2E102C005900D921F
:10014000AA33B107D9F721E0AAE3B1E001C01D92BB
:10015000AC3FB207E1F711E0C2E2D1E004C0229760
:10016000FE010E944309CE31D107C9F70E94C90898
:100170000C9450090C94000026E040E855E260E041
:1001800070E08FEA91E00E94CE0640E855E260E020
:1001900070E081E491E00E94090364E08AE391E069
:1001A0000E949D0368E770E08FEA91E00E941308C7
:1001B0004AE050E060913A018FEA91E00E94B10874
:1001C000109261010895CF93C82F882301F168E64A
:1001D00070E08FEA91E00E9413084AE050E06C2F33
:1001E0008FEA91E00E94B108809160018B3039F074
:1001F0008C3029F08A3059F01092600108C045E037
:1002000060E071E08AE391E0CF910C947E04CF919D
:1002100008958AE391E00E941904809360010C9490
:10022000E30020E043E062E081E491E00E94D90233
:1002300042E061E471E08AE391E00C94970381E489
:1002400091E00C9480022091A4013091A50128171F
:100250003907B9F49091620180916301981789F090
:10026000E0916201F0E0EC59FE4F80812091620143
:1002700030E02F5F3F4F2F7333272093620190E0D0
:1002800008958FEF9FEF08951F93CF93DF93DC01C5
:100290005C968D919C915D97009749F481E090E088
:1002A00013969C938E93129780E090E03BC05196FA
:1002B000ED91FC91529750962C915097322F30959A
:1002C0001FB75E964C915E9741FB772770F941FD11
:1002D0006095F8944081772311F0422B01C04323AD
:1002E0004083EC012197F1F748E0508160FF02C0A4
:1002F000522B01C053235083EC012197F1F76695EF
:10030000415099F78081772311F0832301C0822B1C
:1003100080831FBF5C968D919C915D970197F1F74B
:1003200081E090E0DF91CF911F9108950895209191
:10033000A4013091A5012817390771F49091620149
:1003400080916301981741F0E0916201F0E0EC596F
:10035000FE4F808190E008958FEF9FEF08952091E8
:10036000A4013091A5012817390771F48091630128
:100370002091620190E0805C9F4F821B910960E4B4
:1003800070E00E94D808089580E090E00895E09120
:10039000A401F091A501E817F90769F4A389B489CC
:1003A0009C918589809589238C931092A501109248
:1003B000A40181E0089580E00895CF93DF93EC01DC
:1003C0008A8D9B8D892BF1F08091A4019091A501DC
:1003D0008C179D07B9F0009711F00E94C7018E8D10
:1003E0008E7F8E8F1092630110926201D093A501CF
:1003F000C093A401EB89FC8980819D89892B80832E
:1004000081E001C080E0DF91CF9108951F920F92AB
:100410000FB60F9211242F933F934F935F936F93D7
:100420007F938F939F93AF93BF93EF93FF93E0914D
:10043000A401F091A501309709F451C0868DA685DD
:10044000B785958581FF04C08C91892329F447C025
:100450008C91892309F043C0A389B4899C91858933
:10046000809589238C93868997890197F1F7208D50
:10047000318DA685B785758558E040E0C9010197A3
:10048000F1F7842F90E095958795482F6C9167231D
:1004900009F04068515091F7868D81FD409580911B
:1004A000630190E001968F739927209162012817CC
:1004B00049F0A0916301B0E0AC59BE4F4C938093DA
:1004C000630103C0868D8160868F828D938D019735
:1004D000F1F7A389B4898C919589892B8C93FF912D
:1004E000EF91BF91AF919F918F917F916F915F91AC
:1004F0004F913F912F910F900FBE0F901F90189525
:1005000029E031E0FC01318320830C94C7011F9363
:10051000CF93DF93EC01162F6E8D6695617081E0AD
:100520006827812F0E94B90561E0812F0E94800514
:10053000812F90E0FC01E852FF4FE491E88BFC0131
:10054000E451FF4FE491F0E0EE0FFF1FE65FFE4F36
:10055000859194919A8B898BDF91CF911F9108950A
:100560001F93CF93DF93EC01162F60E0812F0E9441
:1005700080058E8D81FD04C061E0812F0E94B90548
:100580001C87812F90E0FC01E852FF4FE491ED873A
:10059000FC01E451FF4FE491F0E0EE0FFF1FE0504B
:1005A000FF4F859194919F878E87DF91CF911F9107
:1005B0000895FF920F931F93CF93DF93EC01F62ED4
:1005C000522F1B821A8208EE13E020E030E00C83E9
:1005D0001D832E833F8389E091E0998388831F8A5E
:1005E0001E8A198E188E1B8E1A8E1D8E1C8E8E8D55
:1005F0008E7F50FB81F98E8F642FCE010E9487027F
:100600006F2DCE01DF91CF911F910F91FF900C9430
:10061000B002CF93DF93EC019A01AB011B8E1A8ECF
:10062000198E188E1F8A1E8A60E079E08DE390E0B3
:100630000E940E09C9012430310520F0B901635030
:10064000710902C061E070E07D8F6C8FEC85E6314E
:1006500008F068C0B901769567956431710518F0A6
:100660006351710902C061E070E07F8B6E8B069769
:1006700018F0C901059702C081E090E0998F888F3A
:10068000C901880F991F820F931F9695879596959C
:1006900087958D30910510F00C9702C081E090E0B5
:1006A0009B8F8A8F20916800E83050F091E0EE3007
:1006B00008F490E081E001C0880F9A95EAF701C044
:1006C00084E0822B809368002C85283038F02E300F
:1006D00040F0263148F48CE690E008C08DE690E0CA
:1006E00005C08BE690E002C080E090E09C8B8B8B95
:1006F000283030F481E001C0880F2A95EAF70DC058
:10070000822F90E02E3010F4089701C00E9791E0F0
:1007100001C0990F8A95EAF7892F8D8B8C8D9D8D5D
:100720000197F1F7CE01DF91CF910C94DD01FC012F
:1007300015827383628340830895CF93DF93EC0126
:10074000862F6C8361E00E94800560E08C81DF91E0
:10075000CF910C94B905EF92FF920F931F93CF9313
:10076000DF931F92CDB7DEB77C018B0161E0DC0126
:1007700014968C9149830E94B905F7018281938177
:10078000DC01ED91FC91498150E00280F381E02D84
:10079000B801099560E0F70184810F90DF91CF9156
:1007A0001F910F91FF90EF900C94B9051F93CF9379
:1007B000DF93EC018A819B81DC01ED91FC91008447
:1007C000F185E02D0995182F8A819B81DC01ED913F
:1007D000FC910480F581E02D0995811710F480E0EB
:1007E00001C0812FDF91CF911F910895CF93DF93A7
:1007F000EC011D821E8219828A819B81DC01ED91B0
:10080000FC910480F581E02D0995892B51F08A81B6
:100810009B81DC01ED91FC910680F781E02D09952B
:10082000EBCF65EB70E08FEA91E0DF91CF910C9414
:100830003C081F93CF93DF93EC010E94D6038823DB
:10084000B9F18D81811134C08A819B81DC01ED91E8
:10085000FC910680F781E02D0995182F8A819B81F4
:10086000DC01ED91FC910680F781E02D09959881DE
:10087000981314C067E970E08FEA91E00E943C0889
:100880008A819B81DC01ED91FC910680F781E02D4E
:1008900009958E83198381E08D830AC063E870E037
:1008A0008FEA91E00E943C081982CE010E94F60373
:1008B0008E81DF91CF911F9108950F931F93CF9356
:1008C000DF93142F062FEB018C2F801B811770F400
:1008D00069914AE050E08FEA91E00E94AA0866E13F
:1008E00071E08FEA91E00E943608EECF8FEA91E046
:1008F000DF91CF911F910F910C943808CF92DF9226
:10090000EF92FF920F931F93CF93DF93CDB7DEB794
:10091000C054D1090FB6F894DEBF0FBECDBF8C0115
:100920007B01C42E67EA70E08FEA91E00E94130811
:100930004AE050E0F80166818FEA91E00E94B10838
:1009400094E0D92EDC0CD982F80180818A838681DB
:100950008B831C824C2D50E0B701CE0105960E947E
:1009600047094D2DBE016F5F7F4FC8010E945D0496
:100970004D2DBE016F5F7F4FC8010E94AB03C801C0
:100980000E94F603C05CDF4F0FB6F894DEBF0FBEC7
:10099000CDBFDF91CF911F910F91FF90EF90DF902E
:1009A000CF9008951F920F920FB60F9211242F939C
:1009B0003F938F939F93AF93BF938091A7019091A3
:1009C000A801A091A901B091AA013091A60123E04C
:1009D000230F2D3720F40196A11DB11D05C026E877
:1009E000230F0296A11DB11D2093A6018093A7019C
:1009F0009093A801A093A901B093AA018091AB01A3
:100A00009091AC01A091AD01B091AE010196A11DF4
:100A1000B11D8093AB019093AC01A093AD01B09355
:100A2000AE01BF91AF919F918F913F912F910F9008
:100A30000FBE0F901F901895789484B5826084BD86
:100A400084B5816084BD85B5826085BD85B58160D2
:100A500085BDEEE6F0E0808181608083E1E8F0E032
:100A60001082808182608083808181608083E0E861
:100A7000F0E0808181608083E1EBF0E08081846040
:100A80008083E0EBF0E0808181608083EAE7F0E042
:100A900080818460808380818260808380818160A6
:100AA00080838081806880831092C10008958330A4
:100AB00081F028F4813099F08230A1F008958730D8
:100AC000A9F08830B9F08430D1F4809180008F7D16
:100AD00003C0809180008F7780938000089584B553
:100AE0008F7702C084B58F7D84BD08958091B0005A
:100AF0008F7703C08091B0008F7D8093B000089500
:100B0000CF93DF9390E0FC01E852FF4F2491FC016A
:100B1000E451FF4F8491882349F190E0880F991F99
:100B2000FC01EC5EFE4FA591B491865F9E4FFC01E7
:100B3000C591D4919FB7611108C0F8948C9120950C
:100B400082238C93888182230AC0623051F4F89406
:100B50008C91322F309583238C938881822B8883CC
:100B600004C0F8948C91822B8C939FBFDF91CF911E
:100B700008950F931F93CF93DF931F92CDB7DEB7E6
:100B8000282F30E0F901EC53FF4F8491F901E8522E
:100B9000FF4F1491F901E451FF4F04910023C9F074
:100BA000882321F069830E9457056981E02FF0E0D6
:100BB000EE0FFF1FE65FFE4FA591B4919FB7F8942B
:100BC0008C91611103C01095812301C0812B8C93FE
:100BD0009FBF0F90DF91CF911F910F910895FC015E
:100BE000818D228D90E04096821B91098F7099270C
:100BF0000895FC01918D828D981731F0828DE80F58
:100C0000F11D858D90E008958FEF9FEF0895FC0111
:100C1000918D828D981761F0828DDF01A80FB11D33
:100C20005D968C91928D9F5F9F70928F90E008955A
:100C30008FEF9FEF089588E897E0892B49F080E0D7
:100C400090E0892B29F00E94880781110C94000004
:100C50000895FC01848DDF01A80FB11D9D962C9194
:100C6000848D90E001968F719927848FA689B7892A
:100C70002C93A089B1898C9180648C93938D848D01
:100C8000981306C00288F389E02D80818F7D8083D0
:100C90000895CF93DF93EC01888D8823C9F0EA890A
:100CA000FB89808185FD05C0A889B9898C9186FD65
:100CB0000FC00FB607FCF5CF808185FFF2CFA88962
:100CC000B9898C9185FFEDCFCE010E942906E7CF2F
:100CD000DF91CF910895CF92DF92FF920F931F93F0
:100CE000CF93DF931F92CDB7DEB76C0181E0D601C1
:100CF00058968C9358975B969C915B975C968C91D9
:100D00005C97981307C05096ED91FC9151978081A4
:100D100085FD2CC0F601038D10E00F5F1F4F0F7192
:100D20001127F02EF601848DF81211C00FB607FCC2
:100D3000F9CFD6015096ED91FC915197808185FFB6
:100D4000F1CFC60169830E9429066981EBCF838DAB
:100D5000E80FF11D65A7D6015B960C935B97529641
:100D6000ED91FC915397808180620CC0D60156961C
:100D7000ED91FC91579760835096ED91FC915197BE
:100D800080818064808381E090E00F90DF91CF913B
:100D90001F910F91FF90DF90CF900895BF92CF9257
:100DA000DF92EF92FF92CF93DF93EC016A017B0118
:100DB000B22EE889F98982E08083411581EE5807D7
:100DC00061057105A1F060E079E08DE390E0A70195
:100DD00096010E94EC0821503109410951095695AC
:100DE000479537952795211580E1380798F0E889D0
:100DF000F989108260E874E88EE190E0A70196011D
:100E00000E94EC0821503109410951095695479536
:100E100037952795EC85FD853083EE85FF8520830A
:100E2000188EEC89FD89B082EA89FB898081806116
:100E30008083EA89FB89808188608083EA89FB89D5
:100E4000808180688083EA89FB8980818F7D8083AF
:100E5000DF91CF91FF90EF90DF90CF90BF900895FA
:100E60001F920F920FB60F9211242F938F939F937F
:100E7000EF93FF93E091BF01F091C0018081E09179
:100E8000C501F091C60182FD12C090818091C80118
:100E90008F5F8F702091C901821751F0E091C801D6
:100EA000F0E0E155FE4F958F8093C80101C080812D
:100EB000FF91EF919F918F912F910F900FBE0F9007
:100EC0001F9018951F920F920FB60F9211242F9317
:100ED0003F934F935F936F937F938F939F93AF93C2
:100EE000BF93EF93FF938FEA91E00E942906FF9151
:100EF000EF91BF91AF919F918F917F916F915F9192
:100F00004F913F912F910F900FBE0F901F9018950A
:100F10008FEA91E00E94EF0521E0892B09F420E09F
:100F2000822F08951092B2011092B10188EE93E0E1
:100F3000A0E0B0E08093B3019093B401A093B50119
:100F4000B093B6018CE191E09093B0018093AF0132
:100F500085EC90E09093BC018093BB0184EC90E021
:100F60009093BE018093BD0180EC90E09093C0010E
:100F70008093BF0181EC90E09093C2018093C10106
:100F800082EC90E09093C4018093C30186EC90E0E2
:100F90009093C6018093C5011092C8011092C901B7
:100FA0001092CA011092CB010895CF92DF92EF9276
:100FB000FF920F931F93CF93DF937C016A01EB01A4
:100FC00000E010E00C151D0571F06991D701ED915D
:100FD000FC910190F081E02DC7010995892B19F052
:100FE0000F5F1F4FEFCFC801DF91CF911F910F917E
:100FF000FF90EF90DF90CF9008956115710581F01B
:10100000DB010D900020E9F7AD0141505109461B6D
:10101000570BDC01ED91FC910280F381E02D0994E6
:1010200080E090E00895EF92FF920F931F93CF938B
:10103000DF938C017B01C0E0D0E0F701EC0FFD1FD6
:101040006491662359F0F801A081B181ED91FC9182
:10105000C8010995892B11F02196EFCFCE01DF91C0
:10106000CF911F910F91FF90EF9008950C94FD0781
:1010700068E271E00C94FD070F931F93CF93DF9309
:10108000EC010E9413088C01CE010E943808800FE9
:10109000911FDF91CF911F910F9108958F929F9291
:1010A000AF92BF92DF92EF92FF920F931F93CF9375
:1010B000DF93CDB7DEB7A1970FB6F894DEBF0FBEB2
:1010C000CDBF7C01F42FD52ECB0119A2223008F41C
:1010D0002AE08E010F5D1F4F822E912CA12CB12C86
:1010E0006F2F7D2DA50194010E94EC08F22FD32EC5
:1010F000CA01015011096A3014F4E0E301C0E7E3CA
:10110000E60FD801EC93232B242B252B49F7B801AC
:10111000C7010E94FD07A1960FB6F894DEBF0FBE6F
:10112000CDBFDF91CF911F910F91FF90EF90DF9096
:10113000BF90AF909F908F9008952115310541F495
:10114000DC01ED91FC910190F081E02D642F099478
:101150000C944E089A01462F50E060E070E00C9429
:101160009D080F931F93CF93DF93EC019A01462FB5
:1011700050E060E070E00E949D088C01CE010E946A
:101180003808800F911FDF91CF911F910F91089523
:1011900008950E941C050E94C8080E94BC00CBE173
:1011A000D6E00E9409012097E1F30E941B06F9CFC7
:1011B00097FB072E16F4009407D077FD09D00E9404
:1011C0002D0907FC05D03EF4909581959F4F089519
:1011D000709561957F4F0895A1E21A2EAA1BBB1B43
:1011E000FD010DC0AA1FBB1FEE1FFF1FA217B307F3
:1011F000E407F50720F0A21BB30BE40BF50B661F09
:10120000771F881F991F1A9469F7609570958095CC
:1012100090959B01AC01BD01CF010895052E97FB70
:101220001EF400940E94250957FD07D00E94EC0887
:1012300007FC03D04EF40C94250950954095309549
:1012400021953F4F4F4F5F4F089590958095709532
:1012500061957F4F8F4F9F4F0895AA1BBB1B51E194
:1012600007C0AA1FBB1FA617B70710F0A61BB70B16
:10127000881F991F5A95A9F780959095BC01CD01BB
:101280000895EE0FFF1F0590F491E02D0994FB01E6
:10129000DC0102C001900D9241505040D8F70895F2
:1012A00011E0C2E2D1E004C0FE010E94430922968F
:0A12B000C432D107C9F7F894FFCF4C
:1012BA000406080A0C000000004401D507AF012308
:1012CA000197019601202000000000006B06D50757
:1012DA00EF050706F90549060D0A006E616E0069F9
:0A12EA006E66006F7666002E0000AD
:00000001FF
